:100000000C9436000C945E000C945E000C945E0020
:100010000C945E000C945E000C945E000C945E00E8
:100020000C945E000C945E000C945E000C945E00D8
:100030000C945E000C945E000C945E000C945E00C8
:100040000C9462020C945E000C9430020C940A0230
:100050000C945E000C945E000C945E000C945E00A8
:100060000C945E000C945E00AC02C60311241FBE0B
:10007000CFEFD8E0DEBFCDBF11E0A0E0B1E0E4E417
:10008000FCE002C005900D92AA31B107D9F721E03A
:10009000AAE1B1E001C01D92AB3CB207E1F710E06C
:1000A000C5E3D0E004C02197FE010E94CC03C43315
:1000B000D107C9F70E94E7020C9415060C940000C2
:1000C000CF92DF92EF92FF920F931F93CF93DF9324
:1000D0006C017A018B01C0E0D0E0CE15DF0589F01C
:1000E000D8016D918D01D601ED91FC910190F081C7
:1000F000E02DC6010995892B11F47E0102C02196DD
:10010000ECCFC701DF91CF911F910F91FF90EF903E
:10011000DF90CF900895FC01918D828D981761F04A
:10012000828DDF01A80FB11D5D968C91928D9F5F2E
:100130009F73928F90E008958FEF9FEF0895FC01D9
:10014000918D828D981731F0828DE80FF11D858D8C
:1001500090E008958FEF9FEF0895FC01918D228D1F
:10016000892F90E0805C9F4F821B91098F739927A4
:10017000089584E291E00E94AD0021E0892B09F40A
:1001800020E0822F0895FC01848DDF01A80FB11DAE
:10019000A35ABF4F2C91848D90E001968F739927BD
:1001A000848FA689B7892C93A089B1898C918064AA
:1001B0008C93938D848D981306C00288F389E02D6B
:1001C00080818F7D80830895EF92FF920F931F931C
:1001D000CF93DF93EC0181E0888F9B8D8C8D9813FA
:1001E00005C0E889F989808185FD24C0F62E0B8D34
:1001F00010E00F5F1F4F0F731127E02E8C8DE81258
:100200000CC00FB607FCFACFE889F989808185FF19
:10021000F5CFCE010E94C300F1CF8B8DFE01E80F18
:10022000F11DE35AFF4FF0820B8FEA89FB89808131
:10023000806207C0EE89FF896083E889F98980813F
:100240008064808381E090E0DF91CF911F910F91D6
:10025000FF90EF900895CF93DF93EC01888D882372
:10026000C9F0EA89FB89808185FD05C0A889B98923
:100270008C9186FD0FC00FB607FCF5CF808185FFFE
:10028000F2CFA889B9898C9185FFEDCFCE010E946C
:10029000C300E7CFDF91CF91089580E090E0892BF4
:1002A00029F00E94B90081110C94000008953FB715
:1002B000F89480911F0190912001A0912101B091AB
:1002C000220126B5A89B05C02F3F19F00196A11D5C
:1002D000B11D3FBFBA2FA92F982F8827820F911DDC
:1002E000A11DB11DBC01CD0142E0660F771F881F23
:1002F000991F4A95D1F708958F929F92AF92BF921E
:10030000CF92DF92EF92FF926B017C010E94570126
:100310004B015C01C114D104E104F104F1F00E942D
:100320005701DC01CB0188199909AA09BB09883E4C
:100330009340A105B10570F321E0C21AD108E1088C
:10034000F10888EE880E83E0981EA11CB11CC11430
:10035000D104E104F10419F7DDCFFF90EF90DF90B5
:10036000CF90BF90AF909F908F9008950E94C90545
:100370000F931F93CF93DF93EC01888199810097AE
:1003800029F02A813B812617370788F48B016F5F9C
:100390007F4F0E94FF04009761F0998388831B833D
:1003A0000A832C813D81232B11F4FC01108281E012
:1003B00001C080E0DF91CF911F910F910895EF92DE
:1003C000FF920F931F93CF93DF93EC017B018A0180
:1003D000BA010E94B8012881398181110DC021150F
:1003E000310519F0C9010E946704198218821D8223
:1003F0001C821B821A8206C01D830C83B701C901AF
:100400000E94D705CE01DF91CF911F910F91FF90F0
:10041000EF9008951F920F920FB60F9211242F9311
:100420003F934F935F936F937F938F939F93AF937C
:10043000BF93EF93FF9384E291E00E94C300FF918A
:10044000EF91BF91AF919F918F917F916F915F914C
:100450004F913F912F910F900FBE0F901F901895C5
:100460001F920F920FB60F9211242F938F939F9389
:10047000EF93FF93E0913401F09135018081E09199
:100480003A01F0913B0182FD12C0908180913D01C3
:100490008F5F8F7320913E01821751F0E0913D01F3
:1004A000F0E0EC5DFE4F958F80933D0101C08081AF
:1004B000FF91EF919F918F912F910F900FBE0F9011
:1004C0001F9018951F920F920FB60F9211242F9321
:1004D0003F938F939F93AF93BF9380911B01909114
:1004E0001C01A0911D01B0911E0130911A0123E061
:1004F000230F2D3720F40196A11DB11D05C026E85C
:10050000230F0296A11DB11D20931A0180931B0198
:1005100090931C01A0931D01B0931E0180911F01B7
:1005200090912001A0912101B09122010196A11D7D
:10053000B11D80931F0190932001A0932101B093DE
:100540002201BF91AF919F918F913F912F910F9079
:100550000FBE0F901F901895E4E2F1E01382128213
:1005600088EE93E0A0E0B0E084839583A683B78310
:100570008AE091E09183808385EC90E09587848781
:1005800084EC90E09787868780EC90E0918B808B5D
:1005900081EC90E0938B828B82EC90E0958B848B46
:1005A00086EC90E0978B868B118E128E138E148EB4
:1005B000E1ECF1E011821082138212821582148222
:1005C00040E050E068E171E0CF010C94DF01CF938F
:1005D000DF9300D0CDB7DEB7789484B5826084BD58
:1005E00084B5816084BD85B5826085BD85B5816037
:1005F00085BD80916E00816080936E0010928100B5
:10060000809181008260809381008091810081606F
:100610008093810080918000816080938000809130
:10062000B10084608093B1008091B00081608093BC
:10063000B00080917A00846080937A0080917A0083
:10064000826080937A0080917A00816080937A0042
:1006500080917A00806880937A001092C100E091C6
:100660003401F091350182E08083E0913001F09116
:1006700031011082E0913201F09133018FEC8083DF
:1006800010923C01E0913801F091390186E08083BD
:10069000E0913601F0913701808180618083E091A3
:1006A0003601F0913701808188608083E0913601C6
:1006B000F0913701808180688083E0913601F0916C
:1006C000370180818F7D808384E291E00E94AD00BC
:1006D0001816190644F484E291E00E948B0080937E
:1006E00023018A3309F54091C5015091C601411596
:1006F000510509F442C06091C1017091C20184E2C8
:1007000091E00E94600042E050E066E171E084E226
:1007100091E00E94600040E050E068E171E081EC0F
:1007200091E00E94DF0129C089831A820091C501EE
:100730001091C6010F5F1F4FB80181EC91E00E943C
:10074000B801882399F02091C1013091C2018091B4
:10075000C5019091C601BE016F5F7F4F820F931F4D
:100760000E94D7051093C6010093C5016AE070E0AE
:1007700080E090E00E947C01A7CF68EE73E080E00B
:1007800090E00E947C010E944D019ECF8091C101AA
:100790009091C2010C946704EE0FFF1F0590F49135
:1007A000E02D0994CF93DF938230910510F482E01D
:1007B00090E0E091C901F091CA0120E030E0C0E092
:1007C000D0E0309711F14081518148175907C0F0AE
:1007D0004817590761F482819381209719F09B8310
:1007E0008A832BC09093CA018093C90126C021152A
:1007F000310519F04217530718F49A01BE01DF01C1
:10080000EF010280F381E02DDCCF2115310509F1E4
:10081000281B390B2430310590F412968D919C9150
:1008200013976115710521F0FB019383828304C046
:100830009093CA018093C901FD01329644C0FD0125
:10084000E20FF31F81939193225031092D933C9332
:100850003AC02091C7013091C801232B41F4209167
:100860000201309103013093C8012093C701209108
:100870000001309101012115310541F42DB73EB73A
:100880004091040150910501241B350BE091C701F3
:10089000F091C801E217F307A0F42E1B3F0B2817B5
:1008A000390778F0AC014E5F5F4F2417350748F0E9
:1008B0004E0F5F1F5093C8014093C70181939193DE
:1008C00002C0E0E0F0E0CF01DF91CF9108950F93F7
:1008D0001F93CF93DF93009709F48CC0FC013297EC
:1008E000138212820091C9011091CA0101151105EC
:1008F00081F420813181820F931F2091C7013091B3
:10090000C8012817390779F5F093C801E093C701AA
:1009100071C0D80140E050E0AE17BF0750F4129606
:100920002D913C911397AD012115310509F1D901A4
:10093000F3CF9D01DA013383228360817181860FB9
:10094000971F8217930769F4EC0128813981260FDC
:10095000371F2E5F3F4F318320838A819B81938392
:100960008283452B29F4F093CA01E093C90142C068
:100970001396FC93EE931297ED01499159919E01C4
:10098000240F351FE217F30771F480819181840FE2
:10099000951F029611969C938E9382819381139654
:1009A0009C938E931297E0E0F0E0D80112968D911F
:1009B0009C911397009719F0F8018C01F6CF8D9157
:1009C0009C9198012E5F3F4F820F931F2091C7018A
:1009D0003091C8012817390769F4309729F410922B
:1009E000CA011092C90102C0138212821093C80179
:1009F0000093C701DF91CF911F910F910895A0E05F
:100A0000B0E0E5E0F5E00C94E205EC01009721F49C
:100A1000CB010E94D203B8C0FC01E60FF71F9C0176
:100A200022503109E217F30708F4ACC0D9010D9147
:100A30001C91119706171707B0F00530110508F43F
:100A40009FC0C80104978617970708F499C0025001
:100A50001109061B170B019311936D937C93CF0122
:100A60000E9467048DC05B01A01AB10A4C01800E80
:100A7000911EA091C901B091CA0140E050E0E12C63
:100A8000F12C109709F44AC0A815B905D1F56D905D
:100A90007C901197630182E0C80ED11CCA14DB045C
:100AA00080F1A3014A195B096A0182E0C80ED11CDA
:100AB0001296BC9012971396AC91B5E0CB16D10468
:100AC00040F0B282A38351834083D9016D937C931C
:100AD0000AC00E5F1F4FC301800F911FF901918360
:100AE0008083EB2DFA2FE114F10431F0D701139636
:100AF000FC93EE93129744C0F093CA01E093C901AE
:100B00003FC08D919C9111974817590708F4AC018B
:100B10007D0112960D90BC91A02DB3CF8091C7019D
:100B20009091C80188159905E1F446175707C8F454
:100B30008091000190910101009741F48DB79EB71B
:100B40004091040150910501841B950BE817F907AA
:100B5000C8F4F093C801E093C701F9017183608381
:100B60000FC0CB010E94D2037C01009759F0A8016D
:100B7000BE010E94CE05CE010E946704C70104C0D9
:100B8000CE0102C080E090E0CDB7DEB7EEE00C947D
:100B9000FE0581E090E0F8940C941506FB01DC0161
:100BA00002C001900D9241505040D8F70895FB01CA
:100BB000DC0101900D920020E1F708952F923F9201
:100BC0004F925F926F927F928F929F92AF92BF925D
:100BD000CF92DF92EF92FF920F931F93CF93DF9309
:100BE000CDB7DEB7CA1BDB0B0FB6F894DEBF0FBE66
:100BF000CDBF09942A88398848885F846E847D84B3
:100C00008C849B84AA84B984C884DF80EE80FD80B4
:100C10000C811B81AA81B981CE0FD11D0FB6F8942A
:100C2000DEBF0FBECDBFED01089510E0C5E3D0E0FB
:100C300004C0FE010E94CC032196C633D107C9F738
:040C4000F894FFCF56
:100C44000000CB01800000000000E4006000AD0063
:0A0C54008B009F002B010D0A000029
:107E0000112484B714BE81FFF0D085E080938100F7
:107E100082E08093C00088E18093C10086E0809377
:107E2000C20080E18093C4008EE0C9D0259A86E02C
:107E300020E33CEF91E0309385002093840096BBD3
:107E4000B09BFECF1D9AA8958150A9F7CC24DD24C4
:107E500088248394B5E0AB2EA1E19A2EF3E0BF2EE7
:107E6000A2D0813461F49FD0082FAFD0023811F036
:107E7000013811F484E001C083E08DD089C08234E0
:107E800011F484E103C0853419F485E0A6D080C0E4
:107E9000853579F488D0E82EFF2485D0082F10E0AE
:107EA000102F00270E291F29000F111F8ED06801E7
:107EB0006FC0863521F484E090D080E0DECF843638
:107EC00009F040C070D06FD0082F6DD080E0C81688
:107ED00080E7D80618F4F601B7BEE895C0E0D1E017
:107EE00062D089930C17E1F7F0E0CF16F0E7DF06D8
:107EF00018F0F601B7BEE89568D007B600FCFDCFD4
:107F0000A601A0E0B1E02C9130E011968C91119780
:107F100090E0982F8827822B932B1296FA010C0160
:107F200087BEE89511244E5F5F4FF1E0A038BF0790
:107F300051F7F601A7BEE89507B600FCFDCF97BE46
:107F4000E89526C08437B1F42ED02DD0F82E2BD052
:107F50003CD0F601EF2C8F010F5F1F4F84911BD097
:107F6000EA94F801C1F70894C11CD11CFA94CF0C13
:107F7000D11C0EC0853739F428D08EE10CD085E9AC
:107F80000AD08FE07ACF813511F488E018D01DD067
:107F900080E101D065CF982F8091C00085FFFCCF94
:107FA0009093C60008958091C00087FFFCCF809118
:107FB000C00084FD01C0A8958091C6000895E0E648
:107FC000F0E098E1908380830895EDDF803219F02E
:107FD00088E0F5DFFFCF84E1DECF1F93182FE3DFCA
:107FE0001150E9F7F2DF1F91089580E0E8DFEE27F6
:047FF000FF270994CA
:027FFE00040479
:0400000300007E007B
:00000001FF
